S013000045545F50636F6E74726F6C2E73726563C8
S11300000C94B5000C94D4000C94D4000C948F027E
S11300100C94D4000C94D4000C94D4000C94D4000C
S11300200C94D4000C94D4000C94D4000C94D400FC
S11300300C94BD020C94AB050C94D4000C94D40025
S11300400C94D4000C94D4000C94D4000C94D400DC
S11300500C94D4000C94D4000C94D4000C94D400CC
S11300600C94D4000C94D4000C94D4000C94D400BC
S11300700C94D4000C94D4000C94D4000C94D400AC
S11300800C94D4000C94D4000C94D4000C94D4009C
S11300900C94D4000C94D4000C94D4000C94D4008C
S11300A00C94D4000C94D4000C94D4000C94D4007C
S11300B00C94D4000C94D4000C94D4000C94D4006C
S11300C00C94D4000C94D4000C94D4000C94D4005C
S11300D00C94D4000C94D4000C94D4000C94D4004C
S11300E00C94D4000C94D40007634236B79BD8A771
S11300F01A39685618AEBAAB558C1D3CB7CC576349
S1130100BD6DEDFD753EF6177231BF000000803FF6
S113011008000000BE922449123EABAAAA2ABECD12
S1130120CCCC4C3E00000080BEABAAAAAA3E000084
S11301300000BF000000803F00000000000841787C
S1130140D3BB4387D1133D190E3CC3BD4282AD2BB3
S11301503E68EC8276BED98FE1A93E4C80EFFFBEAB
S113016001C4FF7F3F000000000011241FBECFEF39
S1130170CDBFDFE7DEBF11E4A0E0B0E4E2EEF4E1DE
S113018000E00BBF02C007900D92A836B107D9F763
S113019021E4A8E6B1E401C01D92A23FB207E1F751
S11301A00E94A0050C946F0A0C9400006150710920
S11301B020E030E00EC0DC01A20FB31F4C91FC0123
S11301C0E60FF71F50815C9340832F5F3F4F6150D0
S11301D07109261737077CF30895CF92DF92EF92C7
S11301E0FF920F931F93CF93DF938A016901C0E0BD
S11301F0D0E011C07801EC0EFD1E2AE030E040E0B2
S113020050E00E94360A605DF7016083622F732F0D
S1130210842F952F2196611571058105910551F75C
S113022006C0F801EC0FFD1F80E380832196CC15F6
S1130230DD05BCF3BE01C8010E94D600F801EC0F35
S1130240FD1F1082CE01DF91CF911F910F91FF907E
S1130250EF90DF90CF9008958F929F92AF92BF92CC
S1130260CF92DF92EF92FF920F931F93CF93DF937E
S11302704B015C018A01E9010E9435076B01770F8C
S1130280EE08FF08C701B6010E946D079B01AC018F
S1130290C501B4010E9451064B015C0120E030E02D
S11302A0A801C701B6010E94ED007C01209749F125
S11302B0F801E80FF91F8EE28083BE010D2E000CB9
S11302C0880B990B0E946D079B01AC0160E070E004
S11302D080E291E40E948F089B01AC01C501B40146
S11302E00E9422082FEFE21AF20A0E943507A801A1
S11302F04E0D5F1D072E000C880B990B9E010E946A
S1130300ED00DF91CF911F910F91FF90EF90DF905F
S1130310CF90BF90AF909F908F900895E0E4F4E069
S113032020812D7F2083208121602083BC0180E0F7
S113033090E00E946B0720E030E040E851E40E9426
S113034022089B01AC0160E074E284E79DE40E9412
S1130350C30620E030E040E05FE30E9452060E94C2
S11303603C07E0E2F8E0608771878681806C8683D1
S113037008959091240895FFFCCF80932208089556
S11303800F931F93CF93DF938C01C0E0D0E007C09D
S1130390F801EC0FFD1F80810E94B9012196F8013C
S11303A001900020E9F73197E01BF10BCE17DF072E
S11303B078F38AE00E94B901DF91CF911F910F91E8
S11303C008959A0143E951E40E942C0183E991E4E0
S11303D00E94C0010895E0E0F9E081E0858383E0B4
S11303E084830895E0E0F9E08DE0868381E08583ED
S11303F083818A6083838381816083830895CF931B
S1130400DF93C82FD62F809105098370833089F438
S113041080E490E40E94C00120E63AEE01C09C0111
S1130420809105098370833021F4C9010197232B3E
S1130430B1F785E080930509DD2341F08C2F90E02E
S1130440880F991F81608093070904C08C2F880F3F
S11304508093070980E69AEE2091050924FF06C0DF
S11304602091050926FD02C00197B1F7892B21F4DB
S11304708AE490E40E94C0018091050982FF04C0CF
S113048082E590E40E94C001DF91CF910895E7EEE8
S1130490F3E03197F1F700C000008093080980E68B
S11304A09AEE2091050924FF02C00197D1F7892B08
S11304B021F48AE490E40E94C0018091050983FD3F
S11304C004C08091050982FF06C081E790E40E9480
S11304D0C0010E94EB010895CF93DF93C0E6DAEEEA
S11304E080910509882314F02197D1F7809105099B
S11304F083FD04C08091050982FF06C085E890E46D
S11305000E94C0010E94EB01CD2B21F48AE490E407
S11305100E94C00180910809DF91CF9108951F9234
S11305200F920FB60F9211240BB60F922F933F9395
S11305304F935F936F937F938F939F93AF93BF93E7
S1130540EF93FF9382E50E94B901E3E4F1E0808137
S113055081608083FF91EF91BF91AF919F918F91C3
S11305607F916F915F914F913F912F910F900BBEAF
S11305700F900FBE0F901F9018951F920F920FB6F9
S11305800F9211240BB60F928F939F93AF93BF9347
S1130590EF93FF938091EE419091EF41A091F04150
S11305A0B091F1410196A11DB11D8093EE4190934C
S11305B0EF41A093F041B093F141E6E0FBE080818C
S11305C081608083FF91EF91BF91AF919F918F9153
S11305D00F900BBE0F900FBE0F901F901895E0E088
S11305E0F4E082898860828B83898860838B83E3CB
S11305F093E3A3E3B0E08093EA419093EB41A093AB
S1130600EC41B093ED418CEC9CECACECB0E080930D
S11306108F4190939041A0939141B093924180E88F
S113062095E20E948E010E94F20108958F929F929A
S1130630AF92BF92CF92DF92EF92FF92CF93DF936C
S113064060E088E10E94FF018AEA0E94470280E09C
S11306500E94470280E00E9447020E94EB018FE063
S113066097E20197F1F700C0000061E088E10E9481
S1130670FF010E946C02809382410E946C0290E010
S1130680A0E0B0E0BA2FA92F982F88278093834148
S113069090938441A0938541B09386410E946C025B
S11306A0409183415091844160918541709186418C
S11306B0482B762F652F542F442740938341509322
S11306C0844160938541709386410E946C024091FD
S11306D08341509184416091854170918641482BBA
S11306E04093834150938441609385417093864144
S11306F0E0E0F9E08481846084838FE097E20197ED
S1130700F1F700C000008090EA419090EB41A09086
S1130710EC41B090ED418091834190918441A0914E
S11307208541B09186419C01AD01281939094A09D6
S11307305B09C0918041D0918141A0910940B09161
S11307400A40AC1BBD0B0E94550A0E946B076B014B
S11307507C0180918F4190919041A0919141B09101
S11307609241BC01CD01681979098A099B090E944B
S11307706B079B01AC01C701B6010E94C3066B0164
S11307807C01BE0180E090E00E946B07A701960106
S11307900E94520660937C4170937D4180937E4118
S11307A090937F412FE23DE94CE852E40E942208F5
S11307B0609378417093794180937A4190937B411F
S11307C020E030E04AE754E40E941D08181644F47F
S11307D0109278411092794110927A4110927B41A3
S11307E0609178417091794180917A4190917B41F7
S11307F041E050E00E94E1016091784170917941BB
S113080080917A4190917B41DF91CF91FF90EF905D
S1130810DF90CF90BF90AF909F908F900895E0E0CD
S1130820F4E080818160808380898860808BE0E04F
S1130830FAE08FE99FE086A397A310A211A280811A
S113084080838181806181838181836081838081D0
S113085081608083089580916C4190916D41A09155
S11308606E41B0916F41803A9F40A105B10560F09F
S11308708FE99FE0A0E0B0E080936C4190936D41DC
S1130880A0936E41B0936F410895CF92DF92EF929F
S1130890FF9220E030E040E85FE360910140709116
S11308A0024080910340909104400E94520620919E
S11308B074413091754140917641509177410E9445
S11308C0510660937041709371418093724190938B
S11308D0734120910540309106404091074050916A
S11308E008400E9422086B017C0160916C41709168
S11308F06D4180916E4190916F410E946B07A701F9
S113090096010E9452060E943C0760936C417093CA
S11309106D4180936E4190936F410E942B04FF9030
S1130920EF90DF90CF9008958F929F92AF92BF92F5
S1130930CF92DF92EF92FF920E941603609374416C
S113094070937541809376419093774141E050E0F4
S11309500E94E1010E94450420E030E040E050E4C0
S11309606091014070910240809103409091044055
S11309700E94510620917441309175414091764115
S1130980509177410E941D0888231CF081E08093D8
S1130990004080910040882309F461C08FEC97E007
S11309A0A0E0B0E080936C4190936D41A0936E41C0
S11309B0B0936F411FC00E941603609374417093FB
S11309C0754180937641909377410E944504E4E811
S11309D0F4E080818E7F8083808182608083E0E088
S11309E0FAE080818160808380916C4190916D41B7
S11309F080A791A720E030E040E85FE360910140E8
S1130A007091024080910340909104400E945206EC
S1130A1020917441309175414091764150917741D4
S1130A200E941D0888233CF61092004018C00E94C2
S1130A30160360937441709375418093764190934B
S1130A4077410E944504E4E8F4E080818D7F80834F
S1130A50E0E0FAE080818160808310A611A620E0A6
S1130A6030E040E050E46091014070910240809198
S1130A700340909104400E945206209174413091A9
S1130A80754140917641509177410E94BE0688237A
S1130A9074F21EC00E9416036093744170937541F2
S1130AA08093764190937741E4E8F4E080818E7FEF
S1130AB0808380818D7F808310926C4110926D4180
S1130AC010926E4110926F411092280A1092290AD6
S1130AD08090014090900240A0900340B090044068
S1130AE020E030E040E050E4C501B4010E94520629
S1130AF0C0907441D0907541E0907641F090774178
S1130B00A70196010E941D0888238CF020E030E0A4
S1130B1040E050E4C501B4010E9451069B01AC01C0
S1130B20C701B6010E941D0888230CF0B3CFFF90C3
S1130B30EF90DF90CF90BF90AF909F908F900895EB
S1130B4080E895E20E948E010E94EF020E940F0449
S1130B500E949404FDCF1F920F920FB60F9211249E
S1130B600BB60F922F933F934F935F936F937F93A3
S1130B708F939F93AF93BF93EF93FF9380916841BB
S1130B8090916941A0916A41B0916B410196A11D78
S1130B90B11D8093684190936941A0936A41B093D9
S1130BA06B41813D9740A105B10508F462C081E421
S1130BB091E40E94C0018091880480FD42C080912C
S1130BC0880481FD3EC0209174413091754140916B
S1130BD076415091774160918B4170918C41809125
S1130BE08D4190918E410E9451066093874170938C
S1130BF088418093894190938A4188E491E40E94DA
S1130C00C0016091874170918841809189419091A0
S1130C108A4142E050E00E94E10160918741709175
S1130C2088418091894190918A4120E030E048E4F4
S1130C3052E40E941D08181624F487E591E40E94EA
S1130C40C0018091744190917541A0917641B09119
S1130C50774180938B4190938C41A0938D41B093C5
S1130C608E41109268411092694110926A4110922B
S1130C706B41E6E1FBE0808181608083FF91EF912D
S1130C80BF91AF919F918F917F916F915F914F91A0
S1130C903F912F910F900BBE0F900FBE0F901F909E
S1130CA018955058BB27AA270E9469060C94E3079D
S1130CB00E94D50738F00E94DC0720F039F49F3FEA
S1130CC019F426F40C94D2070EF4E095E7FB0C9487
S1130CD0CC07E92F0E94F40758F3BA176207730789
S1130CE08407950720F079F4A6F50C9416080EF401
S1130CF0E0950B2EBA2FA02D0B01B90190010C0128
S1130D00CA01A0011124FF27591B99F0593F50F43F
S1130D10503E68F11A16F040A22F232F342F442797
S1130D20585FF3CF469537952795A795F04053958F
S1130D30C9F77EF41F16BA0B620B730B840BBAF05F
S1130D409150A1F0FF0FBB1F661F771F881FC2F7CA
S1130D500EC0BA0F621F731F841F48F487957795DE
S1130D606795B795F7959E3F08F0B0CF9395880F98
S1130D7008F09927EE0F9795879508950E94A80784
S1130D8008F481E008950E94D7060C94E3070E94BA
S1130D90DC0758F00E94D50740F029F45F3F29F0A2
S1130DA00C94CC0751110C9417080C94D2070E9490
S1130DB0F40768F39923B1F3552391F3951B550B6D
S1130DC0BB27AA2762177307840738F09F5F5F4F1A
S1130DD0220F331F441FAA1FA9F335D00E2E3AF059
S1130DE0E0E832D091505040E695001CCAF72BD071
S1130DF0FE2F29D0660F771F881FBB1F26173707C2
S1130E004807AB07B0E809F0BB0B802DBF01FF27F3
S1130E1093585F4F3AF09E3F510578F00C94CC07FD
S1130E200C9417085F3FE4F3983ED4F386957795C6
S1130E306795B795F7959F5FC9F7880F911D9695AC
S1130E40879597F90895E1E0660F771F881FBB1F08
S1130E50621773078407BA0720F0621B730B840BB5
S1130E60BA0BEE1F88F7E09508950E943C0768943A
S1130E70B1110C94170808950E94FC0788F09F573D
S1130E8098F0B92F9927B751B0F0E1F0660F771FAA
S1130E90881F991F1AF0BA95C9F714C0B13091F0A0
S1130EA00E941608B1E008950C941608672F782F55
S1130EB08827B85F39F0B93FCCF386957795679565
S1130EC0B395D9F73EF490958095709561957F4FD1
S1130ED08F4F9F4F0895E89409C097FB3EF4909577
S1130EE08095709561957F4F8F4F9F4F9923A9F0FF
S1130EF0F92F96E9BB279395F6958795779567958E
S1130F00B795F111F8CFFAF4BB0F11F460FF1BC0D1
S1130F106F5F7F4F8F4F9F4F16C0882311F096E964
S1130F2011C0772321F09EE8872F762F05C0662312
S1130F3071F096E8862F70E060E02AF09A95660FCB
S1130F40771F881FDAF7880F9695879597F9089584
S1130F50990F0008550FAA0BE0E8FEEF16161706C6
S1130F60E807F907C0F012161306E407F50798F02E
S1130F70621B730B840B950B39F40A2661F0232B47
S1130F80242B252B21F408950A2609F4A140A695C3
S1130F908FEF811D811D089597F99F6780E870E0A8
S1130FA060E008959FEF80EC089500240A941616DB
S1130FB0170618060906089500240A941216130643
S1130FC0140605060895092E0394000C11F48823D1
S1130FD052F0BB0F40F4BF2B11F460FF04C06F5FED
S1130FE07F4F8F4F9F4F089557FD9058440F551FC3
S1130FF059F05F3F71F04795880F97FB991F61F097
S11310009F3F79F087950895121613061406551F0D
S1131010F2CF4695F1DF08C0161617061806991F79
S1131020F1CF86957105610508940895E894BB276E
S113103066277727CB0197F908950E94A80708F43B
S11310408FEF08950E9435080C94E3070E94D5079A
S113105038F00E94DC0720F0952311F00C94CC07A3
S11310600C94D20711240C9417080E94F40770F30F
S1131070959FC1F3950F50E0551F629FF001729F39
S1131080BB27F00DB11D639FAA27F00DB11DAA1F48
S1131090649F6627B00DA11D661F829F2227B00D95
S11310A0A11D621F739FB00DA11D621F839FA00D20
S11310B0611D221F749F3327A00D611D231F849F70
S11310C0600D211D822F762F6A2F11249F575040C7
S11310D09AF0F1F088234AF0EE0FFF1FBB1F661F42
S11310E0771F881F91505040A9F79E3F510580F00B
S11310F00C94CC070C9417085F3FE4F3983ED4F3A8
S1131100869577956795B795F795E7959F5FC1F7AE
S1131110FE2B880F911D9695879597F90895FA01EE
S1131120EE0FFF1F309621053105A1F16115710500
S113113061F48038BFE39B0749F1689490388105D6
S113114061F08038BFEF9B0741F099234AF5FF3FD8
S1131150E1053105210519F1E8940894E795D901D1
S1131160AA2329F4AB2FBE2FF85FD0F310C0FF5F82
S113117070F4A695E0F7F73950F019F0FF3A38F417
S11311809F779F930DD00F9007FC9058089546F0D9
S11311900C94D20760E070E080E89FE308954FE785
S11311A09F775F934F933F932F930E948A092F91C8
S11311B03F914F915F910E9422080C94E70829F413
S11311C016F00C94CC070C9416080C94D2070E94C9
S11311D0FC07A8F39638A0F707F80F92E8942BE3DE
S11311E03AEA48EB5FE70E9438080F920F920F9299
S11311F04DB75EB70F920E94D209E8EEF0E00E946C
S113120019094F915F91EF91FF91E595EE1FFF1F33
S113121049F0FE57E0684427EE0F441FFA95E1F7C2
S11312204195550B0E944C090F9007FE0C94400900
S11312300895DF93CF931F930F93FF92EF92DF9262
S11312407B018C01689406C0DA2EEF010E943508F8
S1131250FE01E894A5912591359145915591A6F308
S1131260EF010E946906FE019701A801DA9469F76B
S1131270DF90EF90FF900F911F91CF91DF91089530
S11312809B01AC0160E070E080E89FE30C94C3062E
S11312900C94CC070C94060A0E94FC07D8F39923FB
S11312A0C9F3940F511DA3F39150504094F059F099
S11312B0882332F0660F771F881F91505040C1F782
S11312C09E3F51052CF7880F911D9695879597F9A8
S11312D008955F3FACF0983E9CF0BB2786957795C8
S11312E06795B79508F4B1609395C1F7BB0F58F7AC
S11312F011F460FFE8CF6F5F7F4F8F4F9F4FE3CFB5
S11313000C94170816F00C94060A0C94D2076894EF
S11313100C94CC070E94FC07A8F39923C1F3AEF305
S1131320DF93CF931F930F93FF92C92FDD27882359
S11313302AF02197660F771F881FDAF720E030E044
S113134040E85FEB9FE3883920F0803E38F0219637
S11313508F770E945206E0E1F1E004C00E94520639
S1131360EDE3F1E00E9419098B01BE01EC01FB2EB3
S11313706F5771097595771F880B990B0E946D073C
S113138028E132E741E35FE30E943508AF2D98017D
S1131390AE01FF900F911F91CF91DF910E946906DA
S11313A00C94E307FA01DC01AA0FBB1F9B01AC01FB
S11313B0BF5728F4222733274427507820C0B75139
S11313C090F4AB2F0024469537952795011CA395DF
S11313D0D2F3002071F0220F331F441FB395DAF3C8
S11313E00ED00C94510661307105A0E88A07B94605
S11313F030F49B01AC0166277727882790783096D4
S113140021F0208331834283538308959F3F31F039
S1131410915020F4879577956795B795880F911D1E
S11314209695879597F90895A1E21A2EAA1BBB1BDE
S1131430FD010DC0AA1FBB1FEE1FFF1FA217B3079C
S1131440E407F50720F0A21BB30BE40BF50B661FB2
S1131450771F881F991F1A9469F760957095809576
S113146090959B01AC01BD01CF010895052E97FB1A
S11314701EF400940E944D0A57FD07D00E94140ADE
S113148007FC03D04EF40C944D0A509540953095CA
S113149021953F4F4F4F5F4F0895909580957095DC
S11314A061957F4F8F4F9F4F08950E94600AA59FBB
S11314B0900DB49F900DA49F800D911D112408954B
S11314C0A29FB001B39FC001A39F700D811D112481
S11314D0911DB29F700D811D1124911D0895F894E2
S10514E0FFCF38
S11314E201000074420000C03F0100524946005707
S11314F2494600434C4B484F4C4400525841434BDD
S1131502004152424C4F53540042555345525200EB
S113151249444C45004F574E4552004255535900D9
S113152249324320627573792E0074696D656F7553
S113153274000A2D2D2D2D3E204572726F72206982
S11315426E2073656E64696E6720616464722E0A2C
S1131552004572726F7220696E2064617461207337
S1131562656E742E004572726F7220696E2064611A
S113157274612072656369657665642E0052544312
S1131582207365742E000A0A466F722074696D65B1
S11315923A005072657363616C65723A2000526559
S11315A26769737465722076616C75653A000A0A1C
S11315B243616C63756C6174696E67204572726F06
S11315C2720A0041636375726174652074696D65A2
S11315D220706572696F643A00456E746572656461
S11315E22054696D653A004572726F722870657293
S11315F263656E74293A00436865636B696E67209C
S113160274696D65206166746572207365747469AA
S11316126E67205254432072656769737465722E33
S11316220074696D6D6572006C65616B616765203C
S113163272617465203D006C65616B61676520644D
S10B16426574656374656400BE
S9030000FC
